:100000000C942A000C9436000C9434000C94480094
:100010000C9434000C9434000C9434000C94340090
:100020000C9434000C9434000C9434000C94340080
:100030000C9434000C9434000C9434000C94340070
:100040000C9434000C9434000C9434000C94340060
:100050000C94340011241FBECFE5D8E0DEBFCDBF25
:100060000E945A000C946E000C9400001F920F9294
:100070000FB60F9211248F939F939BB381E0892732
:100080008BBB9F918F910F900FBE0F901F90189573
:100090001F920F920FB60F9211248F939F939BB3D1
:1000A00084E089278BBB9F918F910F900FBE0F909B
:1000B0001F90189585E08ABB84E088BB82BB85B71A
:1000C000826085BF84B78F7B84BF8BB780668BBF10
:1000D0008AB780668ABF78940000FECFF894FFCF7D
:00000001FF
