:100000000C942A000C9434000C9434000C943400AA
:100010000C9434000C9434000C9434000C94340090
:100020000C9434000C9434000C9434000C94340080
:100030000C9434000C9434000C9434000C94340070
:100040000C9434000C9434000C9434000C94340060
:100050000C94340011241FBECFE5D8E0DEBFCDBF25
:100060000E9436000C9450000C94000081E087BB85
:1000700088BB82E98CBF83B78D6083BF08B601FE61
:10008000FDCF88B7826088BF88B3882321F018BA73
:1000900080E38CBFF3CF81E088BB82E98CBFEECFD9
:0400A000F894FFCF02
:00000001FF
