:100000000C942A000C943C000C943C000C943C0092
:100010000C943C000C943C000C943C000C943C0070
:100020000C943C000C943C000C943E000C943C005E
:100030000C943C000C943C000C943C000C943C0050
:100040000C943C000C943C000C943C000C943C0040
:100050000C943C0011241FBECFE5D8E0DEBFCDBF1D
:1000600020E0A0E6B0E001C01D92A036B207E1F7A3
:100070000E9450000C945D000C9400001F920F929F
:100080000FB60F9211248F939F939BB381E0892722
:100090008BBB9F918F910F900FBE0F901F90189563
:1000A00083E08ABB82E68CBF89B7826089BF83B751
:0E00B0008D6083BF78940000FECFF894FFCFE0
:00000001FF
