:100000000C942A000C943F000C943F000C943F0089
:100010000C943F000C943F000C943F000C943F0064
:100020000C943F000C943F000C943F000C943F0054
:100030000C943F000C943F000C943F000C943F0044
:100040000C943F000C943F000C943F000C943F0034
:100050000C943F0011241FBECFE5D8E0DEBFCDBF1A
:1000600010E0A0E6B0E0E6ECF3E002C005900D92EF
:10007000A436B107D9F70E94D3010C94E1010C9486
:1000800000000F931F93CF93DF938BB3806C8BBBD8
:100090008BB3807C8BBBA0E0B0E009E110E0C1E055
:1000A000D0E04DC0F8013197F1F70197D9F78BB344
:1000B000625070409E01062E02C0220F331F0A9428
:1000C000E2F76E5F7F4FAE01062E02C0440F551F50
:1000D0000A94E2F7242B28272BBB61507040613033
:1000E000710519F460E070E023C088E893E1DACF8D
:1000F000F8013197F1F70197D9F78BB36E5F7F4F16
:100100009E01062E02C0220F331F0A94E2F76250AE
:100110007040AE01062E02C0440F551F0A94E2F74C
:10012000242B28272BBB6F5F7F4F6630710519F09A
:1001300088E893E1DDCF1196A330B10519F067E0AF
:1001400070E0D3CFDF91CF911F910F910895CF939E
:10015000DF93DF9A8BB380788BBB60E070E0C9E1FE
:10016000D0E0A1E0B0E036C0FE013197F1F7019791
:10017000D9F72BB3CD01042E02C0880F991F0A9422
:10018000E2F728272BBB415050404330510519F46A
:1001900044E050E017C080E197E2E6CFFE013197DE
:1001A000F1F70197D9F72BB3CD01042E02C0880FC8
:1001B000991F0A94E2F728272BBB4F5F5F4F473008
:1001C000510519F080E197E2E9CF6F5F7F4F63300F
:1001D000710519F046E050E0DECFDF91CF91089530
:1001E000CF93DF9360E070E0A9E1B0E0C1E0D0E040
:1001F000DF9A8BB380788BBB80E197E2FD0131976A
:10020000F1F70197D9F746E050E02BB3CE01042E69
:1002100002C0880F991F0A94E2F728272BBB80E1C0
:1002200097E2FD013197F1F70197D9F7415050401E
:100230008FEF4F3F580749F76F5F7F4F633071056E
:10024000B9F6DF91CF910895CF93DF9360E070E02E
:10025000A9E1B0E0C1E0D0E03FE1DB9A8BB3887068
:100260008BBB80E197E2FD013197F1F70197D9F758
:1002700042E050E02BB3CE01042E02C0880F991F3C
:100280000A94E2F728272BBB80E197E2FD01319722
:10029000F1F70197D9F7415050408FEF4F3F580782
:1002A00049F78BB383278BBB80E197E2FD01319740
:1002B000F1F70197D9F745E050E02BB3CE01042EBA
:1002C00002C0880F991F0A94E2F728272BBB80E110
:1002D00097E2FD013197F1F70197D9F74F5F5F4F33
:1002E0004830510551F76F5F7F4F6330710509F05A
:1002F000B4CFDF91CF910895CF93DF9360E070E0AA
:10030000A9E1B0E0C1E0D0E031EFDF9A8BB38078B3
:100310008BBB80E197E2FD013197F1F70197D9F7A7
:1003200046E050E02BB3CE01042E02C0880F991F87
:100330000A94E2F728272BBB80E197E2FD01319771
:10034000F1F70197D9F7415050404330510551F72B
:100350008BB383278BBB80E197E2FD013197F1F7E7
:100360000197D9F741E050E02BB3CE01042E02C033
:10037000880F991F0A94E2F728272BBB80E197E2A8
:10038000FD013197F1F70197D9F74F5F5F4F443087
:10039000510551F76F5F7F4F6330710509F0B5CF9D
:1003A000DF91CF9108958AB38FEF8ABB0E944100FD
:1003B0000E94A7000E94F0000E9424010E947C017C
:0603C000F5CFF894FFCF19
:0403C600F401E80353
:00000001FF
