:100000000C942A000C943F000C943F000C943F0089
:100010000C943F000C943F000C943F000C943F0064
:100020000C943F000C943F000C943F000C943F0054
:100030000C943F000C943F000C943F000C943F0044
:100040000C943F000C943F000C943F000C943F0034
:100050000C943F0011241FBECFE5D8E0DEBFCDBF1A
:1000600010E0A0E6B0E0E2E7F1E002C005900D92FA
:10007000AE36B107D9F70E94AF000C94B7000C94CC
:1000800000009BB392609BBB9BB39F70807F892BCA
:100090008BBB8BB38D7F8BBB0895CF93C82F0E94F2
:1000A000410083EF91E00197F1F700C000008C2F31
:1000B0008295807F0E944100CF9108950E944D005B
:1000C00081EE94E00197F1F700C0000008950E94CE
:1000D0004D0086E791E00197F1F700C00000089518
:1000E00085EA9EE00197F1F700C000008AB3836FB4
:1000F0008ABB80E30E94410081EE94E00197F1F712
:1001000000C0000080E30E94410091E29A95F1F75F
:1001100000C082E30E945E0088E20E945E0088E0E8
:100120000E945E0081E00E945E0087E00E945E0007
:100130008DE00E945E0080E90E945E008BB38160CA
:100140008BBB0895CF93DF93EC0103C021960E94EF
:10015000670088818111FACFDF91CF9108950E94C5
:10016000700080E690E00E94A2000000FECFF894AC
:02017000FFCFBF
:0E0172004A6163656B20576F6A63696B00001A
:00000001FF
