:100000000C942A000C943F000C943F000C943F0089
:100010000C943F000C943F000C943F000C943F0064
:100020000C943F000C943F000C943F000C943F0054
:100030000C943F000C943F000C943F000C943F0044
:100040000C943F000C943F000C943F000C943F0034
:100050000C943F0011241FBECFE5D8E0DEBFCDBF1A
:1000600010E0A0E6B0E0E2EDF1E002C005900D92F4
:10007000A037B107D9F70E9441000C94E7000C9417
:1000800000000E94780080E690E00E94A10000003D
:10009000FECFD99A9BB3807F9F70892B8BBBD99859
:1000A00008951F93182F0E94490084EF91E0019753
:1000B000F1F7812F8295807F0E9449001F9108955A
:1000C0000E94510082EE94E00197F1F708950E949A
:1000D000510084EF91E00197F1F70895D89884EFEB
:1000E00091E00197F1F781E00E946000D89A0895AD
:1000F00086EA9EE00197F1F78AB3836F8ABB80E3BB
:100100000E94490082EE94E00197F1F780E30E949B
:1001100049008AEF90E00197F1F782E30E946000C6
:1001200088E20E94600088E00E94600081E00E94F6
:10013000600086E00E9460008FE00E946000D89A14
:100140000895CF93DF93EC0103C021960E946700CE
:1001500088818823D1F7DF91CF910895D898E4EF73
:10016000F1E03197F1F7806896E0660F771F9A9576
:10017000E1F7862B0E946000D89A08950F931F9391
:10018000CF93DF93EC018B010E94AE00012BB9F4F9
:1001900005C08DE690E00E94A1002196C031D105F6
:1001A000C4F380E090E061E070E00E94AE00C0E047
:1001B000D0E005C08DE690E00E94A1002196C031FC
:1001C000D105C4F3DF91CF911F910F910895F89459
:0201D000FFCF5F
:1001D2004A6163656B20576F6A63696B0020000098
:00000001FF
