:100000000C942A000C943F000C943F000C943F0089
:100010000C943F000C943F000C943F000C943F0064
:100020000C943F000C943F000C943F000C943F0054
:100030000C943F000C943F000C943F000C943F0044
:100040000C943F000C943F000C943F000C943F0034
:100050000C943F0011241FBECFE5D8E0DEBFCDBF1A
:1000600010E0A0E6B0E0E0E8F2E002C005900D92FA
:10007000A036B107D9F70E94E1000C943E010C9420
:1000800000009BB392609BBB9BB39F70807F892BCA
:100090008BBB8BB38D7F8BBB0895CF93C82F0E94F2
:1000A000410083EF91E00197F1F700C000008C2F31
:1000B0008295807F0E944100CF9108950E944D005B
:1000C00081EE94E00197F1F700C0000008950E94CE
:1000D0004D0083EF91E00197F1F700C00000089513
:1000E0008BB38E7F8BBB83EF91E00197F1F700C05C
:1000F000000081E00E945E008BB381608BBB08959D
:1001000085EA9EE00197F1F700C000008AB3836F93
:100110008ABB80E30E94410081EE94E00197F1F7F1
:1001200000C0000080E30E94410089EF90E0019749
:10013000F1F700C0000082E30E945E0088E20E94A6
:100140005E0088E00E945E0081E00E945E0086E022
:100150000E945E008CE00E945E008BB381608BBBCE
:100160000895CF93DF93EC0103C021960E946700AE
:1001700088818111FACFDF91CF9108950F931F935A
:10018000CF93DF9300D000D01F92CDB7DEB78C01A4
:100190000E9470004AE050E0BE016F5F7F4FC801CF
:1001A0000E94FE001D82CE0101960E94B1000F90B8
:1001B0000F900F900F900F90DF91CF911F910F91A3
:1001C000089581E088BB0E94800080E090E00E945A
:1001D000BE0083B7876083BF8FE493EC0197F1F78C
:1001E00000C0000008B600FE04C083B78C7F83BF48
:1001F000F3CF82B790E00E94BE00EECF45325105AA
:1002000020F4423010F00C940901FB011082CB0164
:100210000895BB274A3031F4992322F4BDE290952A
:1002200081959F4F0C941501BB27FB015527AA27E9
:10023000880F991FAA1FA41710F0A41B8395505173
:10024000B9F7A05DAA3308F0A95DA193009779F7EB
:10025000B111B1931192CB010C942E01DC01FC0180
:10026000672F71917723E1F7329704C07C916D93EA
:1002700070836291AE17BF07C8F30895F894FFCF5B
:00000001FF
