:100000000C942A000C9434000C9434000C943400AA
:100010000C9434000C9434000C9434000C94340090
:100020000C9434000C9434000C9434000C94340080
:100030000C9434000C9434000C9434000C94340070
:100040000C9434000C9434000C9434000C94340060
:100050000C94340011241FBECFE5D8E0DEBFCDBF25
:100060000E9436000C9444000C94000081E088BB90
:1000700083B7876083BF8DEF82BF08B600FEFDCFD8
:0C00800083B78C7F83BFF9CFF894FFCFCB
:00000001FF
