:100000000C942A000C9434000C9434000C943400AA
:100010000C9434000C9434000C9434000C94340090
:100020000C9434000C9434000C9434000C94340080
:100030000C9434000C9434000C9434000C94340070
:100040000C9434000C9434000C9434000C94340060
:100050000C94340011241FBECFE5D8E0DEBFCDBF25
:100060000E942B010C9443010C94000080EC82BB95
:1000700020E030E049E150E00AC088E893E1FA016D
:100080003197F1F70197D9F782B3869582BB82B396
:10009000833099F70AC088E893E1FA013197F1F7C4
:1000A0000197D9F782B3880F82BB82B3803C99F75E
:1000B0002F5F3F4F2330310554F3089580E882BB12
:1000C00020E030E049E150E00CC088E893E1FA011B
:1000D0003197F1F70197D9F792B382B38695892BBF
:1000E00082BB82B3803F89F70CC088E893E1FA01B4
:1000F0003197F1F70197D9F792B382B3880F89232B
:1001000082BB82B3803889F72F5F3F4F23303105A0
:1001100044F3089520E030E060E849E150E062BB3C
:1001200088E893E1FA013197F1F70197D9F70CC00C
:1001300092B382B38695892B82BB88E893E1FA015A
:100140003197F1F70197D9F782B38F3F89F72F5F86
:100150003F4F2330310519F7089520E030E078E073
:1001600049E150E06FE172BB88E893E1FA01319711
:10017000F1F70197D9F70CC092B382B38695892B1A
:1001800082BB88E893E1FA013197F1F70197D9F73B
:1001900082B38F3089F782B3862782BB88E893E1E8
:1001A000FA013197F1F70197D9F70CC092B382B3F6
:1001B000880F892B82BB88E893E1FA013197F1F728
:1001C0000197D9F782B3803F89F72F5F3F4F2330E4
:1001D000310509F0C8CF089520E030E070E849E12A
:1001E00050E061EF72BB88E893E1FA013197F1F7D3
:1001F0000197D9F70CC092B382B38695892B82BB45
:1002000088E893E1FA013197F1F70197D9F782B3C2
:10021000803F89F782B3862782BB88E893E1FA01A1
:100220003197F1F70197D9F70CC092B382B3880FD9
:10023000892B82BB88E893E1FA013197F1F70197A6
:10024000D9F782B38F3089F72F5F3F4F23303105C5
:1002500009F0C8CF0895CF93DF938FEF81BBC9E139
:10026000D0E00E9436000E945E000E948A000E9438
:10027000AD000E94EC0088E893E1FE013197F1F7B0
:0A0280000197D9F7EECFF894FFCFF5
:00000001FF
