:100000000C942A000C943C000C943C000C943C0092
:100010000C943C000C943C000C943C000C943C0070
:100020000C943C000C943C000C943E000C943C005E
:100030000C943C000C943C000C943C000C943C0050
:100040000C943C000C943C000C943C000C943C0040
:100050000C943C0011241FBECFE5D8E0DEBFCDBF1D
:1000600010E0A0E6B0E001C01D92A136B107E1F7B3
:100070000E944E000C9465000C9400001F920F9299
:100080000FB60F9211248F9389B3809580936000EF
:100090008F910F900FBE0F901F90189584B38360BF
:1000A00084BB8BB383608BBB85E08CBF89B78260D8
:1000B00089BF83B78D6083BF789495B380916000CA
:0E00C00083709C7F892B85BBF8CFF894FFCF0F
:00000001FF
