:100000000C942A000C945C010C945C010C945C012F
:100010000C945C010C945C010C945C010C945C01EC
:100020000C945C010C945C010C945C010C945C01DC
:100030000C945C010C945C010C945C010C945C01CC
:100040000C945C010C945C010C945C010C945C01BC
:100050000C945C0111241FBECFE5D8E0DEBFCDBFFC
:0C0060000E9446010C943400F894FFCF7D
:10006C0020E030E040C088E082BB4FE986E891E0B8
:10007C00415080409040E1F700C000000EC082B3B8
:10008C00869592B3892B82BB4FE986E891E041506B
:10009C0080409040E1F700C0000082B38F3079F7C8
:1000AC0092B38FE1892782BB4FE986E891E04150FA
:1000BC0080409040E1F700C0000010C082B390E097
:1000CC00880F991F92B3892B82BB4FE986E891E088
:1000DC00415080409040E1F700C0000082B3803F67
:1000EC0069F72F5F3F4F233031050CF4BCCF0895D7
:1000FC0020E030E040C080E882BB4FE986E891E028
:10010C00415080409040E1F700C000000EC082B327
:10011C00869592B3892B82BB4FE986E891E04150DA
:10012C0080409040E1F700C0000082B3803F79F737
:10013C0092B381EF892782BB4FE986E891E0415069
:10014C0080409040E1F700C0000010C082B390E006
:10015C00880F991F92B3892B82BB4FE986E891E0F7
:10016C00415080409040E1F700C0000082B38F30D6
:10017C0069F72F5F3F4F233031050CF4BCCF089546
:10018C0080E882BB20E030E027C04FE986E891E0B0
:10019C00415080409040E1F700C0000082B386954A
:1001AC0092B3892B82BB82B3803F79F710C04FE9A1
:1001BC0086E891E0415080409040E1F700C000009B
:1001CC0082B390E0880F991F92B3892382BB82B3CC
:1001DC00803869F72F5F3F4F2330310524F30895A2
:1001EC0080EC82BB20E030E021C04FE986E891E052
:1001FC00415080409040E1F700C0000082B38695EA
:10020C0082BB82B3833089F70CC04FE986E891E05A
:10021C00415080409040E1F700C0000082B3880F4D
:10022C0082BB82B3803C89F72F5F3F4F233031056F
:04023C0044F30895EA
:1002400020E030E01FC080E882BB4FE986E891E003
:10025000415080409040E1F700C000000EC082B3E2
:10026000869592B3892B82BB4FE986E891E0415095
:1002700080409040E1F700C0000082B38F3F79F7E3
:0C0280002F5F3F4F23303105F4F208954A
:10028C008FEF81BB0E94F6000E94C6000E942001E5
:10029C000E9436000E947E002FE986E891E02150F2
:0C02AC0080409040E1F700C00000ECCF63
:0402B8000C940000A2
:00000001FF
