S00A00005A332E737265638D
S11300000C942A000C943F000C943F000C943F0085
S11300100C943F000C943F000C943F000C943F0060
S11300200C943F000C943F000C9441000C943F004E
S11300300C943F000C943F000C943F000C943F0040
S11300400C943F000C943F000C943F000C943F0030
S11300500C943F0011241FBECFE5D8E0DEBFCDBF16
S113006010E0A0E6B0E0E4EEF0E002C005900D92EE
S1130070A236B107D9F70E9463000C9470000C9467
S113008000001F920F920FB60F9211248F939F932B
S11300909BB381E089278BBB809160008A3039F45F
S11300A09BB382E089278BBB81E0809360008091C1
S11300B060008F5F809360009F918F910F900FBEBF
S11300C00F901F90189583E08ABB82E68CBF89B796
S11300D0826089BF83B78D6083BF78940000FECFB0
S10700E0F894FFCFBE
S10500E4010015
S9030000FC
